:020000041000EA
:1000000000B5324B212058609868022188439860DF
:10001000D860186158612E4B002199600221596106
:100020000121F02299502B49196001219960352056
:1000300000F044F80222904214D00621196600F024
:1000400034F8196E01211966002018661A6600F04E
:100050002CF8196E196E196E052000F02FF8012189
:100060000842F9D1002199601B49196000215960AB
:100070001A491B48016001219960EB211966A021F2
:10008000196600F012F800219960164914480160C1
:100090000121996001BC002800D000471248134993
:1000A000086003C880F30888084703B5996A0420EC
:1000B0000142FBD001200142F8D103BD02B5186610
:1000C0001866FFF7F2FF186E186E02BD00000240BE
:1000D000000000180000070000035F00212200005C
:1000E000F4000018222000A00001001008ED00E03C
:1000F00000000000000000000000000074B24E7A12
:1001000000200420F7010010C3010010C5010010F9
:10011000C1010010C1010010C1010010C101001097
:10012000C1010010C1010010C1010010C701001081
:10013000C1010010C1010010C9010010CB01001065
:10014000CD010010CD010010CD010010CD01001037
:10015000CD010010CD010010CD010010CD01001027
:10016000CD010010CD010010CD010010CD01001017
:10017000CD010010CD010010CD010010CD01001007
:10018000CD010010CD010010CD010010CD010010F7
:10019000CD010010CD010010CD010010CD010010E7
:1001A000CD010010CD010010CD010010CD010010D7
:1001B000CD010010CD010010CD010010CD010010C7
:1001C00000BE00BE00BE00BE00BE00BEEFF3058054
:1001D000103800BEF2EB8871CC170410F017041031
:1001E0003402001090A31AE700201F49086006C8D7
:1001F00081F3088810471D48006800282FD10DA4FE
:100200000ECC002902D000F012F8F9E71849194A7B
:10021000002000E001C19142FCD1174988471749ED
:1002200088471749884700BEFDE701C901C29A42C5
:10023000FBD37047F0170410C00000208006002098
:10024000B01D04100000042000000420B01D0410A4
:10025000001004200010042000000000704709482E
:1002600003F0AAFA0047000008ED00E0000000D00B
:1002700080060020E014002029250010050300104E
:10028000E52400105756000006005250ABB36053EF
:10029000C88F001006005250861C0302D88F001031
:1002A000060052505422A29DE48F001005005250C7
:1002B000DE65F468B01D0410F8B5C04610B5064CF4
:1002C0002378002B07D1054B002B02D0044800E017
:1002D00000BF0123237010BDC807002000000000EC
:1002E000787D0010044B10B5002B03D0034904485F
:1002F00000E000BF10BDC04600000000CC07002099
:10030000787D001010B504F017F804F05FF90028AC
:100310000ED10121002004F025F9FA2001F068FA3D
:100320000021002004F01EF9FA2001F061FAF0E744
:10033000024803F0F5FF0120404210BD787D001017
:1003400010B58300084A944663441C68402262400A
:10035000C02414408022520113431C60C000034B90
:100360009C466044416010BD04C001400040014013
:1003700080000B4B9C46604400290DD00823002AC6
:100380000CD004221343026853400C2213408022F5
:1003900052011043036070470023F0E70022F1E7A9
:1003A00004C00140002909D08000094B9C466044EC
:1003B00080239B0118430223036070478000044B95
:1003C0009C466044C0239B01184302230360F4E76A
:1003D00004C0014070B5D0231B061B689D00094C6A
:1003E0002C59204207D19B002043064C18510D2068
:1003F00000F0D0F970BD044B044ACC21044802F04F
:1004000075F8C046A41200208C7D0010647E001098
:10041000B87D001010B50400D0231B061B689B009C
:100420000A4A9B5818420BD00D2000F0CDFAD02379
:100430001B061B6805499B005A58A2435A5010BD21
:10044000034B044AD621044802F050F8A4120020BD
:10045000147E0010407E0010B87D0010072303407A
:100460009B00C00899403C308000014BC150704750
:1004700000400140F8B507000C0016001D00FFF712
:10048000EDFFFB089B00ED180720384080008440FA
:10049000002E04D080239B011D432C60F8BDC02397
:1004A0009B011D432C60F9E710B5D0231B061B6888
:1004B000002B03D0024BFFF7DDFF10BD014BFAE725
:1004C000304101400041014010B501238340D0225A
:1004D0001206936293610521FFF732FF10BD000001
:1004E000034B1B6802201840431E9841C0B270475E
:1004F00000C00640EFF3108072B6034B1B68002B60
:10050000FBD0BFF35F8F70472C0100D0BFF35F8F2C
:10051000024B00221A6080F3108870472C0100D033
:10052000F8B506000C001500FFF7E4FFE308F71824
:10053000F15C07222240012393400B4205D1DBB23C
:100540000B433B70FFF7E2FFF8BD2100280002F0EB
:1005500067F8F0B583B00600019114001F00FFF7A3
:10056000C9FF00E00134BC420CD8E308F518F35C85
:100570000721214001228A401A42F3D1D2B21A4304
:100580002A7001E001246442FFF7C0FF002C02DB67
:10059000200003B0F0BD019B002BF9D0089802F0B9
:1005A0003FF8000070B505000C00FFF7A3FFE3085B
:1005B000EE18EA5C07210C400123A340134204D04B
:1005C0009A433270FFF7A2FF70BD034B034A2C31F0
:1005D000034801F08BFFC046987E0010187F001082
:1005E000B87E0010002307E0054A9A189200BFF376
:1005F0005F8F0021116001331F2BF5D97047C04672
:1006000040000034054A1078431CDBB21370172BEE
:1006100002D9130010221A707047C04680050020CE
:10062000074B9B68103080001950BFF35F8FBFF3FA
:100630005F8F044B0021196082F310887047C04619
:1006400000ED00E0240100D01F23181A70470000BD
:1006500010B5091A081F0A4B9C466144094A914289
:1006600008D8C30706D440104005400D064B184378
:1006700080B210BD054B064AA321064801F036FFA3
:10068000FC070000FE0F000000E0FFFF287F0010C5
:10069000B4810010587F001010B5091A04394C08B5
:1006A000090B08D14905490D064A11430180064B43
:1006B0002343438010BD054B054AAB21054801F09B
:1006C00015FFC04600F0FFFF00F8FFFFB47F0010E9
:1006D00088810010587F001001238340034A10686E
:1006E0001840431E9841C0B27047C04600E100E088
:1006F000002904D0034B1860034B18607047034B6C
:100700001860FBE780E200E000E100E080E100E04B
:1007100010B5012383401800FFF7EAFF10BD000069
:1007200001238340014A13607047C04600E200E0A5
:10073000024B9B6810308000C058704700ED00E00D
:1007400070B504000D00EFF3108672B60C4B1B68F9
:10075000002BFBD0BFF35F8F2000FFF7E9FF094BB1
:10076000984201D0A84205D1320029002000FFF7AD
:1007700057FF70BD044B054A8621054801F0B6FEBF
:10078000240100D0CD010010C47F0010E8810010CA
:10079000587F0010F0B5DE4657464E464546E0B558
:1007A00089B0814601911500EFF3108A72B6744B3F
:1007B0001B68002BFBD0BFF35F8F724B0027DF5706
:1007C000002F40DB7C00E419A4006F4824180622A7
:1007D000A2566C4B1A706D4B9A684B4610339B00B7
:1007E000D35898461E001B1A2F2B38D9684B9845B2
:1007F0002FD105AE674B33807B009B46D819800014
:10080000614B9846404402306349FFF721FF7080F6
:10081000624BB380FF23B371F571019B07935F4473
:10082000BF0047440ECE0EC701231C43A0465246CC
:1008300041464846FFF7F4FE09B0F0BCBB46B2465D
:10084000A946A046F0BD564B564AD721564801F05E
:100850004DFE564B534ADE21534801F047FEC0433C
:1008600040440C2102F0FCFF002912D101239E43D9
:10087000B34633000026DA79AA4211D90621595627
:1008800000290CDB4A00521892001E003E4B9B18B8
:10089000F1E7474B434AEA21434801F027FE1E0097
:1008A000002E3AD005AB434A1A80813A5A8006237B
:1008B000F3560293002B17DA3F4805AB9B4698800E
:1008C000029A9A71DD71019A0792301D2100FFF79B
:1008D000BFFEB080B7717B00DB199B002A4FFF1869
:1008E0005B4607CB07C7A2E77800C0198000264BFC
:1008F000C0180430321DB388D90A1C2907D15B0502
:100900005915023149005118FFF7A2FED5E72B4BCC
:100910002B4AB121244801F0E9FD05AE1D4B33807F
:100920007B000293D8198000174A90460200424487
:100930000392901C1849FFF78BFE7080039A101DDC
:100940005946FFF785FEB0801E4B5A464146521A63
:10095000524153431B0DB371F571019A0792029BEB
:100960009C466744BF0047440ECE0EC7114B5A4603
:100970001380813B538001231C43A04657E7C046A8
:10098000240100D0DB1400208405002000ED00E0ED
:10099000CD01001000A1FFFFB405002001BDFFFF45
:1009A000FC7F0010D0810010587F001024800010C0
:1009B0004C8000100148000001BD0000C080001004
:1009C000C0810010AAAA0000F0B5CE46474680B507
:1009D00083B006000D00EFF3108872B6564B1B680B
:1009E000002BFBD0BFF35F8F544B9A683400103458
:1009F000A300D758524B9F4207D0AF4200D198E096
:100A00000197504BFB1A2F2B09D942463900300071
:100A1000FFF706FE03B0C0BCB946B046F0BD3000DB
:100A2000FFF75AFE814600213000FFF771FEBFF349
:100A30005F8FEFF30581002901D08C4211D1012392
:100A4000019C9C430022A368AB4212D00622A2560E
:100A5000002A0DDB53009B189B002200394CE41840
:100A6000F1E73621384B394AFF31394801F03EFD74
:100A70002200AB4256D106256557002D38DB6B00AE
:100A80005B199A002F4B9B189A68A260DA79E27181
:100A900006229A56A2719B795BB2002B0FDA2D4881
:100AA000A0806B005B199B00264AD3182A4A117854
:100AB0009971157049463000FFF72AFEA5E7201D01
:100AC0006B005B199B001F4A9B181A1D9B88D90A53
:100AD0001C2907D15B055B15023359005118FFF73C
:100AE000B7FDDDE71D4B1E4AB121194801F0FEFCA0
:100AF000002912D1002A0ED0FF239371194B938045
:100B0000154A1378A371184B0E49641A6441634364
:100B10001B0D1370CEE70A4FF2E7201D1349FFF7B4
:100B2000BBFDC7E76A21124B084AFF31084801F0B4
:100B3000DDFC034F69E7C046240100D000ED00E072
:100B4000CD01001084050020D8800010A081001085
:100B5000587F001001BD0000DB140020C080001091
:100B6000C081001001BDFFFFAAAA0000BE05002041
:100B70000C81001010B5032304009C43064A9446E0
:100B8000644422681840C000FC3383409A43130039
:100B900081400B43236010BD00E400E070B50121EB
:100BA00001432E4BCB1A2F2B28D8EFF30583002BB4
:100BB0002BD0EFF3108C72B6294A1268002AFBD0B2
:100BC000BFF35F8F274A0400244D641B64416243D6
:100BD000120D54B2244A92689B00D2588A421BD00C
:100BE0000022032A32D853009B189B001B49CB18C4
:100BF0009B795BB2A3421FD00132F2E7C7211B4BA6
:100C00001B4A49001B4801F071FC92211A4B184AFB
:100C1000FF31184801F06AFC134A92681749D15015
:100C2000174B1A7882711C70BFF35F8F0C4B002238
:100C30001A608CF3108870BD0D005300991889005C
:100C40006918FF268E710F4A8A80E9E7D1210E4B81
:100C5000074A4900074801F049FCC04684050020C6
:100C6000240100D0AAAA000000ED00E014810010C9
:100C70006C810010587F00103C810010CD010010E5
:100C8000DB14002001BDFFFF488100100022044B4F
:100C900002E0044902C30132072AFAD97047C0466C
:100CA00000E400E08080808010B5FFF7CDFC0100FB
:100CB0000148FFF777FC10BDDD14002000B583B0BC
:100CC0000100064B0093052300220548FFF741FC75
:100CD000002801DB1F23181A03B000BD508100104B
:100CE000DD14002070B504000E001500FFF78AFC2B
:100CF0000100200000F006F8A680E580BFF35F8FBA
:100D000070BD0000024B9C46614489000160704741
:100D10004000003410B50400FFF774FC010020000F
:100D2000FFF7F0FFFF232371BFF35F8F10BD10B5F6
:100D30000400FFF767FC01002000FFF7E3FFFF233B
:100D4000237100236371BFF35F8F10BD70B5050081
:100D50000C00080000F000FF0949200000F040FEF0
:100D6000FFF750FC074B9C466044800068602C7580
:100D7000D0231B061B786B75A400034BE55070BD98
:100D80009110001040000034941200200A4B1A68A1
:100D9000EFF3108172B61368002BFCD0BFF35F8FA6
:100DA000054B1B68BFF35F8F00221A6081F3108828
:100DB00040BF002000217047B814002010B5002962
:100DC00022D003681B7B99421ED8174B9C46614476
:100DD000090183689C4661440C684968002A19D05F
:100DE00003681B7B9A4215D883680F488446624487
:100DF00012019A1810685368020001208B4201D832
:100E00000ED00020C0B210BD084B094A3C21094851
:100E100001F06CFB054B064A3C21064801F066FBDD
:100E2000A242EFD8EDE7C046FFFFFF0F0C84001091
:100E30008C860010B883001010B500291ED0037BEB
:100E400099421BD84B005B18033B0468A4466344DB
:100E5000002919D0002A1DD0914221D0002A25D086
:100E6000047BA24222D8046850008018033820185E
:100E70008170197800291FD11A7010BD104B114ACA
:100E80006821114801F032FB104B114A6F310E48B6
:100E900001F02CFB0F4B0E4A70210B4801F026FB92
:100EA0000D4B0B4A7121084801F020FB044B054A09
:100EB0006821054801F01AFB41701A70DDE7C04651
:100EC00030840010F88600104C840010B4840010A8
:100ED000D4860010C0840010CC84001070B50600C9
:100EE0000D001400002914D0002A14D08068736803
:100EF0009847002806D0220029003000FFF79CFF09
:100F0000280007E02A0021003000FFF795FF2000AD
:100F100000E0100070BD0800FCE70000F0B583B0F1
:100F20000500009201930AAB1C780BAB1F78002CD4
:100F300026D003685A7B944207D10123002B19D194
:100F4000002C3BD1200003B0F0BD002C0CD01A7B4C
:100F5000944209D81A6863001B19033BD3189B7885
:100F6000002BEBD00123E9E73E4B3F4A68213F4885
:100F700001F0BCFA3E4B3F4A67213F4801F0B6FA08
:100F800003689C7B002CDBD012D01A7B94420FD8D4
:100F900062001219033A19688C46624451789973B9
:100FA000002900D1D9730023937053701370C7E7E1
:100FB0002C4B2D4A68212D4801F098FA002C3AD08C
:100FC0002B681B7B9C4236D82C4BE3181B01AA686C
:100FD00094466344009A1A60019A5A60089A9A608B
:100FE000099ADA602E68002C2BD030D0337B9C42DB
:100FF0002DD863001B19033B3268944663440022DA
:101000009A705A701A70717B22003000FFF766FFE9
:101010007073844200D095E7287D009A019B00F010
:1010200027FD061E01D0002F17D00C9B002B00D1EE
:1010300088E71E7086E7124B124A3C210E4801F0E9
:1010400055FA114B114AA521084801F04FFA054BFA
:10105000054A6821054801F049FA2868210000F096
:101060003FFFE2E730840010F88600104C84001047
:10107000E484001004870010B8830010FFFFFF0F06
:101080000C8400108C860010B4830010E8860010D9
:10109000F0B5DE4657464E464546E0B58BB0099062
:1010A000002308938200B54BD658370052E0B44B6A
:1010B000B44A3F21B44801F019FAB44BB44A3C2178
:1010C000B44801F013FA002901D1002869D10021A8
:1010D000404600F0FBFEA04219D12A686B680692D8
:1010E0000793AB689846EB689A464346002B14D0AA
:1010F000002C18D03B681B7B9C4214D8631EFA68F6
:10110000D35C08931B0218433861002015E0A24B02
:10111000A24A8E219F4801F0E9F9A14B9F4A9221F2
:101120009C4801F0E3F9994B9E4A4121994801F00E
:10113000DDF900239A46984600207B68BFF35F8F55
:1011400000221A6086F310884346002B32D1002813
:1011500000D10CE100F000FC02000B1EA7DB002018
:101160000021069007917868EFF3108672B6016847
:101170000029FCD0BFF35F8F396888464C7B002C78
:10118000D7D09AD0097B8C4297D8874965182D0112
:10119000B9688C46654428686968801A99410029B5
:1011A00091DD2A686B68099800F062FC00239A467A
:1011B0009846C2E7089B1B022343994651461800F4
:1011C000C04705000E007A68EFF3108B72B6136803
:1011D00059424B41D9B2002BF9D1BFF35F8F002E9A
:1011E0001EDB002E46DD3B69002B47D04B456DD101
:1011F00000F0B2FB02000B1E6EDB52197341002B94
:1012000070DB002B72DB0021049101310391029409
:1012100051460191414600913800FFF77FFE4CE0B6
:101220003B69002BDDD04B4514D1069A079B521B1E
:10123000B341002B14DB002B16DB0021049101319C
:101240000391029451460191414600913800FFF705
:1012500065FE32E0554B514AA1214E4801F046F956
:1012600001225242524BE6E7454B464A3F2146484F
:1012700001F03CF9002E01D1002DB4D13B68002CC7
:1012800050D05A7B944237D1012100294AD1DA7BD0
:10129000002A4DD19A7B002A03D1DA7B002A5AD149
:1012A0009C73DC73002C5CD03B681B7B9C4258D841
:1012B000FA68013C135D0133135500233B617A68E2
:1012C000BFF35F8F13608BF3108843E7374B334ACC
:1012D000A421304801F00AF9294B2A4A3F212A4823
:1012E00001F004F901225242314B8AE7244B254A8E
:1012F0003F21254801F0FAF8002C0DD01A7B9442CA
:101300000AD862001219033A186884466244927837
:10131000002ABAD00121B8E7264B274A682127487E
:1013200001F0E4F8264B274AF621244801F0DEF8C4
:10133000002A0AD0197B8A4207D851008A18033A3A
:1013400019688C4662445470A4E71A4B1A4A682103
:101350001A4801F0CBF81C4B1A4AFB21174801F040
:10136000C5F80A4B0F4A41210A4801F0BFF80BB0FB
:10137000F0BCBB46B246A946A046F0BD9412002080
:101380007482001058860010908200100C840010A7
:101390008C860010B88300100C8500107086001039
:1013A00024850010B0860010FFFFFF0F308500106D
:1013B000FFFFFF7F30840010F88600104C8400107F
:1013C0006C850010C48600109085001010B50C4B81
:1013D0005B68002B04D00A210A48FFF793FC10BD7C
:1013E000074C2300084A1021206800F07FFC0320EE
:1013F00000F0A6FA03212000FFF7A8FCEBE7C046A7
:10140000CC050020B8140020BD0D001010B5064B0F
:101410005B68002B01D0044810BD044B044A5E21D8
:10142000044801F063F8C046CC050020A4850010F4
:1014300098860010B8830010F0B5DE4657464E4639
:101440004546E0B58BB0804616001F00149B9A46B7
:10145000159B994616AB1B789B461F2302AA944600
:10146000634400221A702BE0002809D0424612681B
:10147000127B904204D8421E4146C9688A5C41E012
:10148000404B414A4121414801F030F807984CE077
:10149000361BAF41002F07DB002F11DA3C4B3D4AD2
:1014A0003F213D4801F022F8012676423B4FF3E709
:1014B000374B384A3F21384801F018F8002F4FDBEE
:1014C00043465A68EFF3108472B6136859424B4191
:1014D000D9B20791002BF8D1BFF35F8F1F3302AA57
:1014E0009446634404930023039302934B46019371
:1014F0005346009332003B004046FFF70FFD031EAA
:10150000B2D1020041464968BFF35F8F00250D60EC
:1015100084F31088002B29D01F2302A98C46634432
:101520001B78002BB2D112021043002B20D05B4657
:10153000002B1DD04946D04704000D0003000B438B
:101540001DD00029A4DB00F007FA06000F1EAFDB58
:1015500036196F41002FB1DA012676420F4FADE701
:101560000B4B0C4A3F210C4800F0C0FF01204042C9
:101570000BB0F0BCBB46B246A946A046F0BD0798EA
:10158000F6E7C0460C840010B0860010B883001047
:10159000748200105886001090820010FFFFFF7FB9
:1015A000F8B50400002900D162E04268EFF310852D
:1015B00072B6136858424341D8B2002BF9D1BFF339
:1015C0005F8FCBB22268567BB3421BD1012000282B
:1015D00048D0206988422BD0090AC9B2002B2ED0EE
:1015E0002068007B83422AD8581EE668305C884217
:1015F0002BD000206368BFF35F8F00221A6085F351
:101600001088F8BD002B0DD0167BB3420AD85E00BF
:10161000F618033E1768BC466644B678002ED6D04E
:101620000120D4E7134B144A6821144800F05EFFF0
:101630002C21134B134AFF31134800F057FF134B73
:10164000134A4121104800F051FF1900100000F02A
:1016500047FC0028CED199210E4B0A4A49000A487E
:1016600000F044FF23698B42C4D100232361C1E70A
:101670000020C6E730840010F88600104C8400106B
:10168000C885001040860010B88300100C8400103C
:10169000B0860010EC850010407D7047F0B587B033
:1016A00006000F00EFF30583002B1FD106246442D0
:1016B000E517A4197D418D4202D803D1844201D996
:1016C00000240025002D14DB0494059500F044F956
:1016D00002000B1E13DBA41A9D41002D17DC14D051
:1016E0003000390000F044F907B0F0BD234800F0A5
:1016F00097FF234B234A3F21234800F0F7FE204B5E
:10170000204A3F21204800F0F1FE002CE8D0FFF7EE
:101710007DFE0023029301931C4B0093049A059BCA
:10172000FFF78AFE002818DADAE7002300E000233A
:10173000002BD5D1164B1A68EFF3108172B61368DF
:10174000002BFCD0BFF35F8F114B1B68BFF35F8F83
:1017500000221A6081F3108820BF0499059A0D4B6E
:101760005B6A9A42E3D80B48806A884203D29A4265
:10177000DBD00123DCE70123DAE7C046F085001067
:101780007482001058860010908200108D0D001099
:10179000B81400200040054070B504000D0000F0B2
:1017A000DBF802000B1E0ADB2000290080185941DB
:1017B00000290ADB00290CDBFFF770FF70BD084B26
:1017C000084A3F21084800F091FE012040420749A5
:1017D000F0E7034B034A3F21034800F087FEC04671
:1017E000748200105886001090820010FFFFFF7F67
:1017F00010B5FA2292000023002102F0C7FBFFF788
:10180000CBFF10BD70B584B005000C00EFF305836D
:10181000002B1ED1FFF7FAFD002302930193224B08
:1018200000932A002300FFF707FE061E23DD20BFDA
:10183000FFF7ECFD3100FFF7B3FE1C4B5B6A9C42E7
:101840002DD81A4A926AAA422CD29C4225D0012055
:1018500026E0164B5B6A994209D8144A926A824282
:1018600007D2994201D001201AE0002018E00020A0
:1018700016E0012014E00D4B5B6A9C4209D80B4A2C
:10188000926AAA4207D29C4201D0012008E00020BF
:1018900006E0002004E0012002E0002000E000203B
:1018A00004B070BD0120FBE78D0D00100040054025
:1018B00070B5EFF305801038EFF3108C72B61A4B49
:1018C0001B68002BFBD0BFF35F8F01221300834006
:1018D00016494B6316490B60164909780C00C44041
:1018E000224214D0114A546A8200134D5259944234
:1018F00006D38200114C125999430E4B197007E020
:101900000A4A031D9B0099589950002200E00022CA
:10191000BFF35F8F044B002119608CF31088002AFD
:1019200000D0904770BDC046280100D0004005405F
:101930003C700540DC140020BC140020EC070020A3
:1019400010B50100024A0348FEF7EAFD10BDC0468B
:1019500028870010D9140020044B5B6A034A906A60
:101960001900536A9942F9D17047C04600400540BA
:10197000084B5B6A01E0074B5B6A8B42FBD301E0DB
:10198000044B5B6A8B4203D1024B9B6A8342F7D3C1
:101990007047C0460040054070B504000D00FFF7D9
:1019A000DBFF02000B0020002900801859418B4208
:1019B00002D804D1824202D901204042C117002935
:1019C00002DBFFF7D5FF70BD024B034A3F210348FE
:1019D00000F08CFD74820010EC87001090820010E3
:1019E00070B504000D00EFF3108672B61B4B1B6838
:1019F000002BFBD0BFF35F8F002D1CD02000FEF723
:101A000097FE174B83420BD019002000FEF798FE7B
:101A100001212000FEF77CFE0123A340114A136040
:101A2000A400114BE550BFF35F8F0C4B00221A60EE
:101A300086F3108870BDA2000B4B0021D15001220B
:101A4000A2400A490B7893430B7005492000FEF72A
:101A5000BBFF00212000FEF75BFEE4E7280100D079
:101A6000B118001038600540EC070020DC1400209D
:101A7000F0B5DE4600B584B00400150001921E00EA
:101A80000293FFF769FF03958E4202D84ED185423B
:101A90004CD9EFF3108B72B6274B1B68002BFBD091
:101AA000BFF35F8F254A17780125A540EBB23B4372
:101AB0001370234B5D63221D92000199D150A20047
:101AC0002049029850501B6A2B4212D11C4B1B6CB0
:101AD0002B4208D00020BFF35F8F174B00221A6003
:101AE0008BF3108823E0184B184AC521184800F0E2
:101AF000FDFCFFF731FF8E4214D802D1039B8342D5
:101B000010D80E4B1B78BB420ED00D4B1D625D638F
:101B10001F2004400123A3400E4A1360074B1F708F
:101B20001E38D8E70020D6E70120D4E7012004B012
:101B300080BCBB46F0BDC046280100D0DC140020AC
:101B400000400540BC1400204C870010D0870010D6
:101B50007087001080E200E0EFF3108C72B60B4B40
:101B60001B68002BFBD0BFF35F8F01238340084A23
:101B7000136208490A789A430A70BFF35F8F034BD8
:101B800000221A608CF310887047C046280100D0EC
:101B900000400540DC14002010B500291ED0037B56
:101BA00099421BD84B005B18033B0468A44663446E
:101BB000002919D0002A1DD0914221D0002A25D019
:101BC000047BA24222D804685000801803382018F1
:101BD0008170197800291FD11A7010BD104B114A5D
:101BE0006821114800F082FC104B114A6F310E48F9
:101BF00000F07CFC0F4B0E4A70210B4800F076FC85
:101C00000D4B0B4A7121084800F070FC044B054A4B
:101C10006821054800F06AFC41701A70DDE7C04693
:101C2000308400100C8900104C840010B484001023
:101C3000F8880010C0840010CC84001070B5060035
:101C40000D001400002914D0002A14D08068736895
:101C50009847002806D0220029003000FFF79CFF9B
:101C6000280007E02A0021003000FFF795FF200040
:101C700000E0100070BD0800FCE7000010B5002374
:101C8000437301338373037BC3730123027B9A4243
:101C900014D9002B0CD0027B934209D85A00D218D9
:101CA000033A01688C4662440133DBB25370EDE7BE
:101CB0000B4B0C4A68210C4800F018FC002A09D094
:101CC000924207D8016853009A18033A8A180023F1
:101CD000537010BD024B034A6821034800F006FC14
:101CE000308400100C8900104C84001010B5017372
:101CF00042608360FFF7C2FF10BD000070B50400B2
:101D0000081E00D170BD002934D0237B994231D800
:101D10004B005B18033B2268944663445A78002AC0
:101D2000F0D02DD0237B9A422AD853009B18033B36
:101D300021688C4663445D7800215970002825D0C5
:101D4000237B984222D843001B18033B21688C4612
:101D500063440021597001002000FFF76FFF060067
:101D600029002000FFF7CAFF020031002000FFF722
:101D700065FFC7E7084B094A6821094800F0B6FB30
:101D8000054B064A6821064800F0B0FB024B034AA7
:101D90006821034800F0AAFB308400100C89001071
:101DA0004C84001070B505000C00160000292FD0DF
:101DB00034D0037B994231D84B005B18033B026857
:101DC000944663445A78002A2ED19A78002A31D159
:101DD0001978FFF793FF0300002E0AD0EA7B002A50
:101DE0002ED1AA7B002A03D1EA7B002A3BD1AC7317
:101DF000EC73002B3DD1002C4FD02B7B9C424CD858
:101E00002B6861000C19033C1C190023637070BD22
:101E1000254B264A3821264800F068FB254B264AE8
:101E20006821264800F062FB254B204A3A212048D1
:101E300000F05CFB234B1D4A3B211D4800F056FB84
:101E4000002A0AD0297B8A4207D851008A18033A0F
:101E500029688C4662445470C3E7164B164A6821C1
:101E6000164800F043FB184B104A4221104800F07E
:101E70003DFB002B0BD02A7B934208D843001B1854
:101E8000033B2A689446634400229A70B3E7094BE7
:101E9000094A6821094800F029FB064B064A6821D7
:101EA000064800F023FBC04604880010E4880010B8
:101EB0000C880010308400100C8900104C84001035
:101EC00060880010888800109085001070B50400AC
:101ED0000A00457B2900FFF765FF6073280070BD8D
:101EE00070B50400002967D0437B8B420ED00029D7
:101EF00011D0037B99420ED84B005B18033B02685C
:101F0000D0188378002B0CD1002056E00121FFF778
:101F1000DDFF012051E0294B294A6821294800F0C2
:101F2000E5FA002B20D0227B93421DD85A00D3180B
:101F3000033B2268D2182568EB5C8B421AD0002B39
:101F40001BD0227B934218D85A00D318033B226837
:101F5000D21853788B4216D0002BF0D11A4B1B4A63
:101F60006B211B4800F0C2FA144B154A6821154832
:101F700000F0BCFA4378137007E0104B104A682158
:101F8000104800F0B3FA4378537000238370437015
:101F900001222000FFF706FF0200617B814205D08D
:101FA0002000FFF74BFE6073012006E0094B074A53
:101FB0007121074800F09AFA002070BD30840010AB
:101FC0000C8900104C84001048810010CC8800104F
:101FD0000C880010AC88001070B5046BE30701D4C6
:101FE000200070BD02003032C0239B0113430A4A17
:101FF0001A60456A826AAD01AD18AD02062000F094
:10200000BDF9064901F02CFC0100280001F028FC74
:102010000021FFF7C1FCE3E7010300004E0E0000C2
:1020200070B504000E001500FFF7D6FF22002C3219
:10203000E16A4E40354080235B0113431D602063FD
:1020400070BD000070B505000C00062000F096F988
:10205000C000210001F004FCC60908D00E4B9E42CE
:1020600016D87F23184001303400460800E00124D0
:102070006C62AE62002200212800FFF7D1FF06202B
:1020800000F07CF98000A101891901F0E9FB70BD25
:102090000026024CECE7C046FEFF0000FFFF0000F8
:1020A00010B505394901013AD2001143002B09D07E
:1020B00002220A43012B07D0002111436E22FFF7B1
:1020C000AFFF10BD0022F4E70421F6E7002909D094
:1020D0000A22064B9C466044434258414000044B50
:1020E000C252704780225200F3E7C0460080FCBF16
:1020F000CC14002070B505000C00062000F03EF95D
:10210000061E27D0164B9D4226D08022D203154BA7
:102110001A60154B1A60154B9B6811009943FAD150
:1021200000212800FFF7D2FF21002800FFF78AFFD7
:1021300006000023012208212800FFF7B1FF2A0032
:102140002C3280239B01134310221A60084B2B630F
:102150000323AB64300070BD80221204D7E7C04671
:102160000080034000E0004000F0004000C000405C
:1021700001030000F8B5DE4657464E464546E0B539
:1021800005000F0092460A9A934250D31A0E9146C8
:102190001E020A9A00233000494601F09FFB804648
:1021A0006C006419A400304B9C466444636883420D
:1021B00000D260602B1FDBB29B46012B3DD9C023B0
:1021C0009B012343802212011A60AB00274A9958D1
:1021D000002907D0506901F043FB431C5800C01888
:1021E0000338FDD253465A0123685A40E0231A406F
:1021F00080235B0123431A605A46012A28D9802391
:102200009B012343802212011A60434663604246C9
:1022100000233000494601F061FBAD00134B5851DB
:102220000120F0BCBB46B246A946A046F8BD104B03
:10223000104A3321104800F059F9012FBFD1C023B3
:102240009B01234303221A60A368DB07FCD5C9E77F
:102250002168794003220A401A60A2680123BB402A
:102260001342FAD0CBE7C046008000402C09002082
:10227000188900108C8900102C89001030B583B0AB
:102280000C2000F011F9FEF72BF900280DD00023E7
:1022900004E099002D4A2E4888500133092BF8D9C3
:1022A0002A4B2C4A5A6203B030BD2B4B00229A674E
:1022B00000F002F9294B01221A60274B5B6C012BBD
:1022C000FBD1274B03221A60234B9B6B012BFBD1C5
:1022D000013300930433234A0121234800F054F8CA
:1022E00005230093214A0121214800F04DF8214B9C
:1022F0000093002202210420FFF73CFF1E4D0095B1
:102300002B00002201210520FFF734FF104C009420
:102310002300002200210720FFF72CFF0094230058
:10232000002200210820FFF725FF0A4B009323001D
:10233000002200210920FFF71DFF00952B0000223D
:1023400000210620FFF716FFADE7C0462C0900204C
:10235000006CDC021BB70000008000403CB0004075
:1023600030B00040002F685900800240008C864742
:1023700000C00240001BB700405973078000014BAA
:10238000C05870472C090020F0B5C64600B50400BF
:102390000E0017001D00374801F062FA8046364BE8
:1023A000FA18364B9A4239D80100380001F058FA31
:1023B0000200103A98235B009A4235D86B1E062B18
:1023C00038D8069B013B062B34D83F09474537D305
:1023D0002D04069B1A0315432368002B36DB284B7C
:1023E0009C4244D080225201264B1A60264B1A6030
:1023F000264B9B6811009943FAD12660A060231DEB
:10240000C02292011A43212313602368002BFCDAB7
:10241000E5600823136080BCB846F0BD1C4B1D4A24
:1024200011211D4800F062F81C4B1A4A19211A4864
:1024300000F05CF81A4B174A1C21174800F056F8B8
:10244000184B144A2321144800F050F822683F2307
:102450001340B342C3D1A3681B051B0D8342BED1F9
:10246000E368EE22D2021340AB42B8D1D3E7802218
:102470009201B9E7001BB70080E84BD380F8A9327E
:1024800000C0024000E0004000F0004000C00040FA
:102490009C890010DC8A0010FC890010588A00100A
:1024A000748A0010C08A001080239B000343014AF5
:1024B000D362704700800540064BAA2212011A60C1
:1024C0002F22DA60044B054A1A60024B5B68002B2E
:1024D000FBDA7047004002400060024000B0FA00A2
:1024E00000BEFDE710B5FFF7FBFF000010B582B09E
:1024F0000C001900002A0CD0084B002A0BD00192C6
:10250000009323000200064801F00AFF0120FFF7B4
:10251000E7FF044BF1E7034AF1E7C046E88A001001
:10252000F88A0010D098001070B52B4B2B4A1A6017
:102530002B4B2C4A1A602C4B9A682A4B9343FAD1A6
:102540002A4C01E008CC9847294B9C42FAD3FFF76C
:1025500095FE234B274A1A60234B9B68DB43DB0124
:10256000FAD1254B40229A675A671A67DA66234CDC
:1025700009E0234B234A87212348FFF7B7FF2000B8
:10258000FEF7C8FB0834214B9C4209D22368002B7C
:10259000F5D0012BEDD12000FEF7C9FB0834F2E79E
:1025A0001B4CA1681B4DC022280001F061FDA560F5
:1025B000EFF30583002B00D000BEFEF713F8FEF703
:1025C00065FBFEF703FF144C01E008CC9847134B62
:1025D0009C42FAD370BDC04600E00040BFCDFBFE78
:1025E00000F00040FE7F3C0000C000406806002074
:1025F00078060020FFFFFF0100F001406006002088
:10260000288B0010C88B0010488B00106806002033
:1026100000ED00E000000020780600208006002089
:102620000FB400B583B0084801F04AFE049B002BAC
:1026300007D005A90191180001F052FE034801F0EE
:102640003FFE0120FFF74CFFA88B0010E89500101B
:1026500010B50148FFF7E4FFB88B0010704710B5C4
:10266000002802D00B684968984710BD010000207F
:1026700007E083001B185B00501C08601078C0182E
:1026800030380A681378303BDBB2092BF1D9704738
:10269000F0B5DE4657464E464546E0B583B0934614
:1026A0001F000C9B9A460D9C0E9B99460F9B9B0707
:1026B00003D0B8460F00060022E00192A3468846E8
:1026C0004E46B9460700B44207D2551C4B46414618
:1026D0002020B84701342A00F5E73D004F465C460C
:1026E000019B9B46B1464646B84637002E0007E0A0
:1026F000013C551C5346185D43463900B0472A003B
:10270000002CF5D135003E0047460F9B9B0707D4B0
:10271000100003B0F0BCBB46B246A946A046F0BDCF
:10272000B0464E46B9462F005D46531BB342EFD22A
:10273000541C4B4641462020B8472200F5E7F0B52F
:10274000CE46474680B585B0944698460C9D0D9C74
:102750000EAB1B789946109A119B129EB7071CD49A
:10276000002B0CD0F7070AD54F46002F02D10C37AB
:10277000374204D0013B02E030272F550134944208
:1027800001D21F2CF8D9F70707D59C4205D21F2C80
:1027900003D830272F550134F5E7F70615D577050F
:1027A00005D4002C03D0944224D09C4222D00F9A0E
:1027B000102A2BD00F9A102A30D00F9A022A35D027
:1027C0001F2C02D830222A5501341F2C05D84A4626
:1027D000002A31D02D222A55013403960293019408
:1027E000009543466246FFF753FF05B0C0BCB946AB
:1027F000B046F0BD621E012C06D00F9F102F01D0F5
:102800001400D4E7023CD2E71400D0E7B206D1D4DA
:102810001F2CCFD878222A550134D1E7B206CCD567
:102820001F2CCAD858222A550134C9E71F2CC7D8F3
:1028300060322A550134C3E7720703D52B222A558B
:102840000134CAE73207C8D520222A550134C4E72B
:10285000F0B5DE4657464E464546E0B593B0814654
:102860008A46089209931CAB10CB1B789B461E9D91
:10287000219B9846002C03D1102342469A43904650
:102880008023DB0046461E4042461A4212D0002CEE
:1028900022D000260EE03033D9B2771C0AAB99550E
:1028A0002900200000F0DCFFAC4216D31F2F14D803
:1028B0003E0004002900200000F0D2FFCBB2092B1B
:1028C000E9D94246920605D54121C918C9B20A394B
:1028D000C9B2E2E76121F8E7270043460693209B4F
:1028E00005931F9B049303955B46029301970AABE4
:1028F0000093099B089A51464846FFF720FF13B002
:10290000F0BCBB46B246A946A046F0BDF0B5DE46D7
:1029100057464E464546E0B595B0089009910A9253
:102920000B931E9E1F9C20AB1B789B46229B9946B7
:10293000239D269B9A463300234303D110335246EE
:102940009A4392468023DB0057461F4052461A4264
:1029500019D0330023432DD0002714E03033DAB2EE
:102960007B1C98460CABDA554A462B003000210000
:1029700000F0B4FFA5421FD819D043461F2B1BD827
:10298000474606000C004A462B003000210000F0AC
:10299000A5FFD3B2092BE1D95246920605D54122B3
:1029A000D218D2B20A3AD2B2DAE76122F8E7B145D8
:1029B000E3D901E00023984653460693259B0593EF
:1029C000249B04934B4603935B4602934346019337
:1029D0000CAB00930B9B0A9A09990898FFF7AFFE7E
:1029E00015B0F0BCBB46B246A946A046F0BD0000FB
:1029F000F0B5DE4657464E464546E0B591B08346B3
:102A00008A460C9298461A9C08941B9D09952200B0
:102A10002B002000290001F0DCF9002800D0E5E0BF
:102A200001225242D74B2000290001F0CDF90028A5
:102A300000D0DBE001225242D34B2000290001F0FC
:102A4000ADF9002800D0D1E000220023089E30001C
:102A5000099D290001F0A2F9002800D0DDE00898C6
:102A60000999069007918023DB001E9A1A400D9267
:102A70001E9A1A4201D106231C9306980799040056
:102A80000D000A000600024300D1D1E0080D400508
:102A9000400DBE4CA44660440A03120BBC4B1343CA
:102AA0001F0001F0A9F9BB4ABB4B01F038F9BB4A42
:102AB000BB4B01F015F904000D000022B94B3000AA
:102AC000390001F008F9B84AB84B01F028F90200C2
:102AD0000B002000290001F003F901F0A5F981465F
:102AE00001F08AF904000D00B14AB24B01F017F968
:102AF0000022B14B01F0F4F801F096F90600AF4A5C
:102B0000AF4B2000290001F00AF904000D0030004D
:102B100001F072F9AB4AAC4B01F001F902000B0075
:102B20002000290001F0D7F804000D0002000B007E
:102B300001F0F5F80A900B91A44BF31800261F053D
:102B400022002B002000290001F0CAF80E900F91FE
:102B500022002B0000208021C90501F0BCF80400F0
:102B60000D0000229A4B0A980B9901F0BEF8002242
:102B7000984B01F0B5F802000B000A980B9901F090
:102B8000B4F80022944B01F0ABF802000B000A9855
:102B90000B9901F0AAF802000B002000290001F0B7
:102BA0009FF802000B000E980F9901F09EF800228A
:102BB000774B01F095F832003B0001F0B0F80600C9
:102BC0000F0004000D00069A079B01F0FDF8002895
:102BD00030D001235B429C46E14400227D4B300013
:102BE000390001F082F804000D0023E01E9B0493DD
:102BF0001D9B03931C9B0293089A099B00920193CF
:102C000043460C9A5146584600F0FCF811B0F0BC0F
:102C1000BB46B246A946A046F0BD00230024069359
:102C20000794069680231B069C46654407951AE781
:102C3000002399464B466333C62B1ED804261E9BA1
:102C40001B0526D52B0023430FD0644A644B0698FE
:102C5000079901F0B1F8002879D00022614B06985D
:102C6000079901F09BF8002871D01C9B4B4506DDAD
:102C70004A46981A431E1C9303E00526DFE700230B
:102C80001C938023DB001E9A1A431E920026002309
:102C900099461D9B9E4264D29F1B02231E9A1A4096
:102CA0000A921E9A134202D0002E00D000274B46F3
:102CB000002B07D022002B000698079901F015F889
:102CC00006900791002200230898099901F066F800
:102CD000002848D1444B1E9A1340049303971C9B31
:102CE0000293069B079C0093019443460C9A51461D
:102CF000584600F087F8002E00D187E71E9B9B0600
:102D00003DD54525441C4346020051462800D8477E
:102D10004B46DA179B18534005220592013E049654
:102D2000002203920A3202924A46D00F0190009389
:102D30004346220051465846FFF78AFD0A9B002B66
:102D400000D163E702005F460C9E1D9D54E01C9B72
:102D5000002B9ED00D9B002B9BD01C9B013B1C93FA
:102D600097E7002799E7069C079D2200290080200D
:102D70000006844661440B0006920793AAE7652586
:102D8000C0E7C046FFFFEF7FFFFFEFFF01FCFFFF43
:102D90000000F03FFB799F501344D33FB3C8608BD2
:102DA000288AC63F0000F83F61436F63A787D23F80
:102DB00071A379094F930A400000E03F1655B5BB57
:102DC000B16B0240EF39FAFE422EE63FFF030000EE
:102DD00000002C4000002440000018402D431CEB54
:102DE000E2361A3F80842E41FFF7FFFF541C434612
:102DF00051462020B8472200931BAB42F6D3100067
:102E000004E7C046F0B5DE4657464E464546E0B5B7
:102E100095B00690079193469946209F1E9A1F9B56
:102E20001000190000F0D5FF002831D101225242D4
:102E3000BF4B1E981F9900F0B1FF002837D1012227
:102E40005242BC4B1E981F9900F0BEFF00283DD196
:102E50000022B94B1E981F9900F0B6FF002850D1F0
:102E60000022B64B1E981F9900F098FF002848D109
:102E7000002200231E981F9900F090FF002850D1D7
:102E800000239846229B5B0500D4B6E0002458E05E
:102E9000229B0393219B029303230193A84B00934E
:102EA0004B465A4607990698FFF7F2FB0EE1229B24
:102EB0000393219B029304230193A24B00934B465F
:102EC0005A4607990698FFF7E3FBFFE00423229A8E
:102ED0001A4022990B4210D09B4B002A0FD004229B
:102EE0002299039121990291019200934B465A46EF
:102EF00007990698FFF7CCFBE8E0944BEDE7032237
:102F0000EEE7229B0493219B039302971E9B1F9C39
:102F1000009301944B465A4607990698FFF768FDBF
:102F2000D4E01E9A1F9B0020002100F0D4FE1E90CA
:102F30001F9101239846A5E70CAB30221A55013F9B
:102F400001341F2C01D8092FF6D81E981F9900F0C4
:102F50006BFF050000F050FF02000B001E981F9948
:102F600000F0B9FEFA007A4B9B181A685B680A9267
:102F70000B9300F0D4FE0890099100F079FF060051
:102F800000F036FF02000B000898099900F0A3FE3C
:102F90000890099100226F4B00F016FF00282ED0F8
:102FA0000136300000F024FF02000B000A980B9954
:102FB00000F0FAFE002801D001350026002F2CD1A8
:102FC000280000F019FF02000B001E981F9900F066
:102FD00082FE06000F0000225E4B00F0DFFE00289C
:102FE00046D100225B4B3000390000F0EDFE002896
:102FF0003ED1EB073CD501353AE0062746E70022F3
:10300000544B0898099900F0C9FE0028D6D1002E2B
:1030100001D0F307D2D50136D0E7AA461F2C11D82C
:10302000013F0A21300000F01BFC651C30310CAB65
:1030300019550A21300000F013FC092E0ED90600A4
:103040002C00EBE755461F2C0CD87B1E002F09D017
:103050000CAA302111551F000134F4E72B0055460E
:103060001C00F0E71F2C03D80CAB2E221A5501349C
:103070001F2C10D80A21280000F0CAFB661C303132
:103080000CAB19550A21280000F0C2FB051E01D027
:103090003400EDE734000323229A1340012B1CD0A7
:1030A0001F2C06D84346002B32D00CAB2D221A55CC
:1030B0000134229B0393219B029301940CAB009358
:1030C0004B465A4607990698FFF7E2FA15B0F0BC4E
:1030D000BB46B246A946A046F0BD219B002B13D0AB
:1030E0004346002B02D10C3313420FD0219B013BEE
:1030F0002193190003E00CAB30221A5501348C42A5
:10310000CED21F2CF7D9CBE72199F8E72199F6E722
:10311000229B5B0704D50CAB2B221A550134C8E760
:10312000229B1B07C5D50CAB20221A550134C0E7E2
:10313000FFFFEFFFFFFFEF7F65CDCD4165CDCDC137
:10314000E48B0010E88B0010DC8B0010D88B001093
:10315000D08D00100000E03FF0B5DE4657464E46E9
:103160004546E0B593B082468B46904611930029C0
:1031700000D1EBE200275546119B1878002800D1BA
:10318000E7E2252809D07C1C43463A005946A84767
:10319000119B013311932700EEE7013311930024B3
:1031A000119A11780B00203BD8B2102803D8830065
:1031B000D048C3589F460B00303BDBB2092B2CD9BB
:1031C0002A292FD000230A93119B1A782E2A39D04E
:1031D00000239A46119A1378683BD9B2122976D8FF
:1031E0008B00C549CB589F4601231C4301321192E5
:1031F000D6E702231C4301321192D1E704231C437A
:1032000001321192CCE708231C4301321192C7E727
:1032100010231C4301321192C2E711A8FFF726FACE
:103220000A90D1E71C9B1A1D1C921868002804DB29
:103230000A90119B01331193C6E702231C434342BA
:103240000A93F6E78022D20014435A1C11925A784E
:103250001300303BDBB2092B04D92A2A07D0002304
:103260009A46B7E711A8FFF701FA8246B2E71C9B1E
:103270001A1D1C921868002804DB8246119B01333A
:103280001193A7E70020F8E780235B002343511C3C
:10329000119152786C2A01D01C0018E0C0239B00C9
:1032A0001C430131119112E080232343511C1191E1
:1032B0005278682A01D01C0009E0C0231C43013168
:1032C000119104E080235B001C4301321192119B99
:1032D00018780300253BDAB2532A00D92CE2930078
:1032E000864AD3589F4680239B001C43013211928B
:1032F000EDE780235B001C4301321192E7E7782859
:1033000009D0582838D06F2838D0622838D01023F8
:103310009C430A2600E01026582833D0692803D0A1
:10332000642801D00C229443630501D50122944303
:1033300069282AD0642828D0A30500D59FE0E3059A
:1033400000D5B8E0630600D4CAE01C9A111D1C9198
:103350001168FF220A4005940A9B04935346039385
:10336000029600230193009243463A0059462800F2
:10337000FFF76EFA070027E01026CDE70826CBE717
:103380000226C9E720221443C8E7A30520D4E30599
:1033900050D4630666D51C9A111D1C911168FF223A
:1033A0000A40D317D118594005940A9B04935346F9
:1033B00003930296D20F0192009143463A00594678
:1033C0002800FFF745FA0700119B01331193D3E65C
:1033D0001C9BDA1D07218A43110008311C911168DA
:1033E00053689C46DB170C930D930C9A0D9B1000B1
:1033F00048400E90624653400F930E980F990C9AD6
:103400000D9B801A99410E900F9108940A9B079387
:10341000534606930496002305936346DA0F0292FF
:103420000090019143463A0059462800FFF76EFA92
:103430000700C9E71C9A111D1C911268D317D118F7
:10344000594005940A9B0493534603930296D20F66
:103450000192009143463A0059462800FFF7F8F9D7
:103460000700B1E7230605D51C9A111D1C91002306
:10347000D25E96E71C9A111D1C91126891E71C9B65
:10348000DA1D07218A43110008311C9108940A9B18
:1034900007935346069304960023059302931368FB
:1034A00054680093019443463A0059462800FFF7B8
:1034B0002DFA070088E71C9A111D1C9105940A9BA0
:1034C00004935346039302960023019313680093D9
:1034D00043463A0059462800FFF7BAF9070073E758
:1034E00023060DD51C9A111D1C9112681204120C92
:1034F00031E7C046F08B0010348C0010808C001037
:103500001C9A111D1C91126825E746281AD01C9B95
:103510000733072293431A0008321C9204940A9A34
:103520000392524602925C681B68009301944346E2
:103530003A0059462800FFF765FC0700119B01334C
:10354000119319E620231C43E1E7672801D047289F
:1035500002D180231B011C43452801D0472801D1FB
:1035600020231C431C9B0733072293431A00083275
:103570001C9204940A9A0392524602925C681B6859
:103580000093019443463A0059462800FFF730FA69
:103590000700119B01331193EEE502231A0022402C
:1035A000924623421FD001241C9B1A1D1C927A1C98
:1035B0009146187843463A005946A8475346002B8F
:1035C00016D1119B013311934F46D5E5561C434646
:1035D00059462020B847230032005C1C9D42F5D894
:1035E0003D001700E0E701233A002F000A9DF4E7B1
:1035F0004A46A9460A9D06E0571C434659462020E4
:10360000C84734003A00661CA542F5D84D4691469D
:10361000D7E71C9B1A1D1C921B6899465346002B2A
:1036200000D1013B4E4601E0013613003278002AFA
:1036300002D05A1E002BF7D14B46F21A109280236B
:10364000DB0026001E401C4203D0524501D95346E0
:10365000109302231A0022400B92234205D03A0015
:1036600037004C46A946554620E03A00109B5F467D
:10367000B3462E0006E0551C434639002020B047D3
:1036800023002A005C1C0A999942F4D835005E4652
:10369000BB46109437004C46A946554606E01D002F
:1036A0000134561C43465946C8473200207800284A
:1036B00004D0002FF4D06B1E002DF0D117004D4622
:1036C0000B9B002B03D1119B0133119354E50A9FEF
:1036D000109B06E0561C434659462020A84723006D
:1036E00032005C1C9F42F5D81700ECE721231C43F5
:1036F0001C9B1A1D1C921B680093059408230493BD
:1037000053460393102302930023019343463A0048
:1037100059462800FFF79CF80700119B01331193CD
:103720002AE57C1C43463A0059462520A847119BB0
:103730000133119327001FE57C1C43463A0059468C
:10374000A847119B01331193270015E50A4B9A46B0
:1037500010E5AA46474502D343465A1E00E03A0008
:10376000434659460020D047380013B0F0BCBB4652
:10377000B246A946A046F0BD5D26001000B585B052
:10378000029003910121009313004A4202A90248CA
:10379000FFF7E2FC05B000BD5F26001001480421E0
:1037A000014B184700060020D9370010014B9B68D9
:1037B000184700000006002010B5010018231B88E0
:1037C00014221088984710BD10B5010018231B88DB
:1037D00016221088984710BDF0B5C64600B5070000
:1037E0000E0000250123984600E00135B5420AD2BB
:1037F000AC003C192068FFF7DFFF20600028F4D1FF
:1038000000239846F1E7404680BCB846F0BD000072
:10381000124A936F9B0815D29066D166002905D095
:10382000FFE7FFE7FFE7516F106F704704B5802196
:103830000906C2175140002800D0C84304F074FAAA
:10384000002104BDF0B5146E556E576F166FFFF76B
:10385000E3FF1466556657671667F0BD000000D099
:10386000114A936F9B0813D210665166002905D048
:10387000FFE7FFE7FFE7516F106F704704B50028BF
:1038800001D00020C04304F04FFA002104BDC0461F
:10389000F0B5146E556E576F166FFFF7E5FF14669F
:1038A000556657671667F0BD000000D094464A4A37
:1038B000926F9208624601D228E0C046F0B5464EAB
:1038C000346E756E776F366F00F020F89446424A7A
:1038D00014665566576716676246F0BD94463E4AC1
:1038E000926F9208624601D254E0C046F0B53A4E5B
:1038F000346E756E776F366F00F04CF89446364A2A
:1039000014665566576716676246F0BD002B24DBC8
:1039100011D000293EDA00B5C943404200D101313F
:1039200000F038F8C943404200D10131DB43524234
:1039300000D1013300BD002AEBD1002801D10029BC
:1039400005D00020C90FC90701D1C043410800B507
:1039500004F0DAF90022002300BD00B500290ADBDB
:10396000DB43524200D1013300F014F8C943404216
:1039700000D1013100BDC943404200D10131DB43D8
:10398000524200D1013300F005F8DB43524200D12E
:10399000013300BD002923D1002B18D1002A0CD0FF
:1039A000BC460D4F38667A6600210023FFE7FFE72B
:1039B000FFE77A6F386F67467047002801D00748E5
:1039C000010000B504F0A0F90022002300BD0200B0
:1039D0000B00002000217047000000D0FFFFFFFF18
:1039E000002B00D0BFE0130C28D1002AE7D080B410
:1039F000114F39667A66FFE7FFE730B4040C7B6F3E
:103A0000396F1B0423433B667A66FFE7FFE7FFE756
:103A1000C04684B27B6F3D6F1B0423433B667A66CE
:103A2000FFE7FFE7C04600232C042D0C7A6F386FA8
:103A300000196941B0BC7047000000D0F0B5944651
:103A40000025140E01D112020835140F01D1120104
:103A50000435940F01D192000235D40F01D15200E8
:103A60000135D40B0134254F7C66254C3C660E0C89
:103A700093B2FFE7FFE7FFE73C6F6643360C77033F
:103A8000BE467343DF0B5B04C01AB941130C73438A
:103A9000DB18C91ACE086643360CB64493B273439A
:103AA0001F0F1B01C01AB941130C73431F0B1B05D9
:103AB000C01AB941860D8F023E436643360C092D6C
:103AC00024DB520A7243801A7703460A6643360C97
:103AD00016235B1BDE40DF40BF1964466643821B32
:103AE0007046043506330100D940A840C01900D300
:103AF0000131A24206D20023F0BD0000000000D038
:103B0000FFFFFFFF121B0130F3D3F1E709277F1BF3
:103B1000FE406446A2B27243801A00D20139220CE0
:103B20007243130C1204821A99410B00704604353B
:103B300013370100F940A840801900D30131002B50
:103B400002D1A2420AD2F0BD013000D30131121BD2
:103B5000FAD2013BF8D1A24200D2F0BD013000D32D
:103B60000131121BF7E7F0B51C0C00D080E00CB45B
:103B700000251C0A04D11B02160E3343120208351D
:103B80001C0B04D11B01160F3343120104359C0B8F
:103B900004D19B00960F334392000235DC0B02D117
:103BA00092185B4101351C00971864410134464F5F
:103BB0007C66464C3C660E0CFFE7FFE7FFE7C0461D
:103BC0003C6F6643360C7703BE4697B27743C01B03
:103BD00000D20139C01B00D201399FB27743C91B03
:103BE000C91B170C77437E04FF0B801BB941CE081D
:103BF0006643360C0C2D33DBB644120B1F053A43DB
:103C00001B0B97B27743C01B00D201399FB2774399
:103C1000C91B170C77433E043F0C801BB941860D2E
:103C20008F023E43664329277F1BFE400C3D7746AB
:103C3000AF40BF1930BCA2B2ABB272437343801A1B
:103C40009941220C7243130C1204801A994102000C
:103C50000B000137001BA941F9D2781E0021F0BDED
:103C60000C277F1BFE4077467F0BAF40FF19E0E734
:103C700000245D1C07D0144F7D663966FFE7FFE71F
:103C8000FFE7FFE73C6F95B29EB265436643401B7A
:103C9000B141150C1E0C6543664336042F0C3E43A0
:103CA0002D04401BB141994204D202000B002000B8
:103CB0000021F0BD01D19042F7D3801A994101341F
:103CC0009942F2D3F6E70000000000D0FFFFFFFFAB
:103CD00048404140484018B4134B5B68019308BD0D
:103CE00018B4114B1B68019308BD94460F4A926F9C
:103CF000920805D2624618B40B4BDB68019308BDED
:103D00000A4AF0B5146E556E576F166F6246FFF78C
:103D1000F2FF064A1466556657671667F0BD18B479
:103D2000014B9B68019308BDB4120020000000D035
:103D3000FFB550404240504059404B40594000E090
:103D4000FFB5154F4C00640D03D0BC4204D10C03E9
:103D500014D80020090D09055C00640D03D0BC4295
:103D600004D11C030AD800221B0D1B0501264B4061
:103D700009D44B4003D58B4200D18242FFBD99420A
:103D8000FCD19042FFBD0B43DB1803431343F5D036
:103D9000C9434918FFBD0000FF07000000B5FFF749
:103DA000CFFF804100BDC04600B5FFF7C9FF01D974
:103DB000002000BD012000BD00B5FFF7B9FF01D90B
:103DC000002000BD012000BD00B5FFF7B1FF80411C
:103DD00000BD012040054A00121804D85A001218EC
:103DE00001D8002070470120704700207047000074
:103DF0000021002805D17047C1174840401AFAD069
:103E0000C90713B5064B1B6898470CBC441CA2405D
:103E10001005120B0349091B09051943114310BD75
:103E2000B41300201F04000010B54C00620D802365
:103E3000D218DB00D21A5B057E2A10DD9E3A13DA17
:103E4000CC170903490819435242D1406400013498
:103E50001532202A05DAD0400843604310BD002007
:103E600010BD0846604310BDC80FC018013810BD12
:103E700018B4024B5B6A019308BD0000B412002025
:103E800010B50148FEF7CCFB208E001070B513234F
:103E90001C78012C14D0012C14DC022C02DC1F4AEB
:103EA0001F4B9A641F48FFF787FC1F4B186070BDBB
:103EB00099001E481A4A885001331F2BF8D9EAE7A7
:103EC0000023FAE71A48FFF77FFC05001948FFF7BF
:103ED0007BFC023803789B007F2B19DD80222900B0
:103EE0000F4800F0C5F8022CD7D1134B1A88B52320
:103EF0001B029A4209D1114B1A88114B9A4204D1E4
:103F0000104B1A88104B9A42C7D00020FEF788FB4E
:103F10000E4B0F4A32210F48FEF7E8FA593F0010C6
:103F2000B41200204C330000B4130020813E001076
:103F3000534400005346000054380000D8380000B5
:103F4000494600009C38000059460000388E001099
:103F5000F08E00108C8E001007B56046002800D14E
:103F600000BE01880A0A0230DF2AFAD1C9B28208EB
:103F700004D3028840880004104300E00068024A2D
:103F80005050039007BD0000B4120020514343433A
:103F9000C9188C46110C83B24B4310B4040C614316
:103FA00092B280B2504362431C041B0C001910BC37
:103FB00059411304120CC01851416144704700006C
:103FC00010B50148FEF72CFBD098001070B51323F4
:103FD0001E781848FFF7F8FB0500012E11D0012EBE
:103FE00009DDAB1E1B789B007F2B1DDD8022290085
:103FF000114800F03DF81148FFF7DEFB104B186048
:1040000070BD542201000C4800F032F8002300E09B
:1040100001331F2BE3D89A00074C1259002AF7D11D
:104020009A0008481051F3E7074B084A4221084814
:10403000FEF75CFA53460000B81300204C33000032
:10404000B4130020C13F0010048F00109C8F00109B
:10405000388F001001480421014B1847100600203A
:10406000D9370010014B1B681847000010060020CC
:10407000014B5B68184700001006002010B50300D4
:10408000080011001B68984710BD0000F8B5070034
:104090000D001600437D002B02D0002400200CE010
:1040A00003681100280098472DE03B7D10E00221B5
:1040B00015483B689847601C0134B44214DA002C60
:1040C000F3DD2B19013B1B780D3B5A425341DBB208
:1040D0002A5D0A2AF0D1002BEED1A042E7DA211A9C
:1040E00028183B689847E2E7B04203DA311A2818EB
:1040F0003B689847002E06DDAD19013D2B780D3B3E
:104100005A4253413B75F8BD2C90001070B5050024
:104110000368002B16D00C4B1C6805E0290004C96D
:104120002000FFF7B3FF2469002C09D02368002B7F
:10413000F9D0064B1B68002BF0D0A342F3D1EDE77A
:1041400000232B6070BDC0468C120020901200200E
:1041500070B505000C000B68802B05D021684B1C46
:1041600023606418257170BD0800FFF7CFFFF5E7E5
:1041700010B5FDF7F1FB02000B1E0BDB0D48002113
:1041800012184B41002B0BDB002B0DDB0A4803F010
:10419000DBFD10BD094B0A4A3F210A48FEF7A6F98C
:1041A00001225242084BEFE7044B054A3F210548E4
:1041B000FEF79CF940420F00600600207482001058
:1041C0001490001090820010FFFFFF7F10B502488E
:1041D00003F092FD10BDC04660060020F0B5CE464B
:1041E000474680B583B006000D0090461C00FFF7DF
:1041F000BFFF81466B1C05D0002C08D0194F1A4B0D
:104200001C6807E0300003F0FDFC0500F4E7174FE1
:10421000F5E72469002C17D02368002BF9D0144B44
:104220001B68002B01D0A342F3D12A0031002000EB
:10423000B8474346002BECD06B46D91D0A230B70C0
:1042400001222000B847E4E74B46002B07D16B1E44
:104250009D41E8B203B0C0BCB946B046F0BDFFF71F
:10426000B5FFF4E77D4000108C1200208D40001057
:1042700090120020094A01E010331A001368002B45
:1042800008D08342F8D1002907D1036913600023C5
:10429000036102E0002900D0106070478C120020FA
:1042A00010B5064B1C6801E098472469002C03D028
:1042B0006368002BF8D1F8E710BDC0468C120020CF
:1042C00070B5050003F09EFC0400002301220100EC
:1042D0002800FFF783FFFFF7E3FF200070BD000019
:1042E00070B5A2B004000E00FFF742FF05000023E6
:1042F00001933300220001A90848FFF73FFA0400A8
:1043000001A8FFF703FFFFF7CBFF002D02D120002C
:1043100022B070BDFFF75AFFF9E7C04651410010C7
:104320000FB400B583B004A901C90191FFF7D8FF0C
:1043300003B008BC04B0184710B500F0F9F801202C
:1043400010BD0000F0B583B005000E0000240FE0A2
:104350006B46D91D0D230B700020002816D19369E0
:104360009B06FCD40B78136001300131F5E7013472
:10437000B44219DA0D4B1A682F5D0D4BD318594210
:104380004B415B000B495B5EBB42E1D06B46D91DE4
:104390000F7000200028EAD193699B06FCD40B78AB
:1043A000136001300131F5E703B0F0BDD0140020F7
:1043B0000080FCBFCC140020F0B583B006000F00D5
:1043C000002504E06B4607331B782B702500BD42A7
:1043D00015DA174B1A6893691024210019401C4202
:1043E0000DD16C1C75196B46D81D0029EAD1936953
:1043F000DB06FCD41368037001310130F5E70D4B87
:104400001B68002B0CD00A4B1A68502393631100D1
:104410003431536B38221A4080235B010B431A60FE
:10442000002D02D0280003B0F0BD033DFAE7C046DE
:10443000D01400202409002010B5064B1B68002B67
:1044400006D0054A126800219163044A1068984713
:1044500010BDC04624090020D014002028090020E7
:1044600070B504000E001C4B1B681C4A9818424291
:10447000504114300500002C03D0194A1268002A5C
:1044800006D0002C19D0164B1C60164B1E6070BD58
:104490001549FCF755F901212800FCF739F90E4BB5
:1044A0001A685023936311003431536B38221A4039
:1044B00080235B010B431A60E5E7094A1268002A72
:1044C000E1D000229A6300212800FCF721F9064977
:1044D0002800FCF779FAD6E7D01400200080FCBF52
:1044E00024090020280900203944001070B50D006F
:1044F0001C000D4B1860002A0BDA002C0EDA0A4B58
:1045000018682900FDF7F6FD01210848FFF7B2FE03
:1045100070BD02211000FBF713FFEEE7022120001F
:10452000FBF70EFFEBE7C046D0140020200600206A
:1045300010B5064B1B78064B1B78E12101230022A6
:1045400049020448FFF7D2FF10BDC046E817041027
:10455000EC17041000400340014B18607047C04640
:10456000FC07002010B50A000100024802F070FBB1
:1045700010BDC04660090020014B18687047C04656
:10458000FC07002000B583B0684603F0B5F9694622
:10459000034803F0B7F9002800D0014803B000BD7C
:1045A0008006002010B5FFF7E7FF040002F0CCFE04
:1045B000054B9C4200D010BD23685B6B20009847E0
:1045C0000020FFF7C9FFF6E78006002010B5FFF7CF
:1045D000D3FF041E06D0200002F09AFE002808D067
:1045E000002010BDFFF7CEFF041E07D0FFF7B4FF79
:1045F000F1E7FFF7D7FF02204042F2E702204042F6
:10460000EFE7000010B5024800F00CF810BDC046FE
:10461000AC12002010B508220149FFF729FD10BD9A
:10462000AC12002070B588B0040004AD00260496DA
:104630000922002105A8FFF715FD00960922002197
:1046400001A8FFF70FFD4B232B700D2269462800B0
:1046500003F04AFB002304E05A1D69468A5CE254D9
:104660000133072BF8DD08B070BD002805D0D0233A
:104670001B06802292045A617047D0231B068022B9
:1046800092049A61F8E7000010B5094BC4582179EB
:104690001820FBF755FE21791D20FBF751FE012262
:1046A00000211D20FBF764FE0020FFF7DEFF10BD98
:1046B0004C08000010B504000520FDF75FFE000C5B
:1046C00060430349FFF7CCF80338FDD210BDC04664
:1046D0009A3B000010B50120FFF7C7FF6420FFF7E9
:1046E000E9FF10BD70B50500194BC458002C17D058
:1046F0000623E356002B08DB0522A256531C10D1DB
:1047000006216156206802F053FB0720205600283E
:104710000CDA08202056002811DA0D4B0022EA504E
:1047200070BD0C49206802F0A1FBE9E702F082FCB1
:104730000720205602F066FCFF23E371E9E702F050
:1047400079FC0820205602F05DFCFF232372E4E789
:104750004C0800007C950010F0B5DE4657464E46EA
:104760004546E0B593B0824610AA864B03CB03C200
:104770008549864802F04AFB002800D1E4E0012385
:10478000834A51468A58002A00D0E5E0814C804A8D
:104790008C50990010AA88582060FF222272E27182
:1047A00006332371002102F013FB40B2A0710028F0
:1047B00000DAD7E0774C7449206802F03BFB43B243
:1047C000984663711022002108A8FFF74BFC802552
:1047D0006D020895F8235B0209938023DB020A939C
:1047E000C0273F030A97102208A904A8FFF740FC3E
:1047F00043465A1D059B0393674818404346DB0117
:104800001843120310430590079B0393DB00DB085A
:1048100080229205904613430793604B99461840B7
:104820000590102204A90CA8FFF722FC80239B020C
:104830000C935B48016830228A435A490A60006839
:1048400001229346160086430E600F990391564845
:104850000840564901430F91554801400F430F97B7
:1048600054493940544F0F430F97FF00FF0841460A
:104870000F430F970D9903914946039801408946CC
:104880000D914E4F0F970E9903914D49039801409A
:104890000D430E954B490D401D430E95216838314F
:1048A00080239B010B438021490419602068062165
:1048B00061564B005B18DB00C318C826B4469C4405
:1048C00066460C9A3260CC2294469C4462464E4620
:1048D0001660D02294469C4462461560DC331F600B
:1048E0005B4600931D2202F03BFB21791820FBF769
:1048F00027FD012200211820FBF73AFD0121182095
:10490000FBF750FD0622A25653009B18DB002268DD
:1049100094466344D8332C4A1A60002002F07AFB94
:10492000E071002002F076FB40B220720723E356CC
:10493000002B1DDB00281BDB002013B0F0BCBB46A6
:10494000B246A946A046F0BD0F49204802F05EFAE3
:10495000002813D0002313E71D4B1E4A66211E4872
:10496000FDF7C4FD5046FFF7BDFE06204042E4E7D8
:104970005046FFF7B7FE06204042DEE706204042E1
:10498000DBE7C046E09400107C950010000030503A
:104990004C080000180900207F00FEFFFFFFFF9F6A
:1049A00078C0014078D00140E0FF0FFC18001000F3
:1049B000FF7FF0FF1FFCFFE30003000418771C24B7
:1049C000FFFF0AFEFFFFF5C101E0000000002050DC
:1049D000F89100106C95001008920010F0B5DE46BA
:1049E00057464E464546E0B583B00D001600994641
:1049F000002900D182E1D14BC458FFF745FE4B4658
:104A0000002B00D1E6E1002D00D17DE1B30700D0FD
:104A100087E1A846AB0700D089E14B469B0700D051
:104A2000B2E10C9B9B0700D0B4E1226806216156DD
:104A300013680125280088408343136006216156CE
:104A40000523E3565A1D924648004218D2002768B3
:104A5000BC466244CC321268B94F3A40DB01134382
:104A60005246120313434018C00062461118CC315D
:104A70000B600622A25653009B18DB00D0331A00AD
:104A800023689C46624480235B0113438022120604
:104A90001A601A60062161568022520413002068B1
:104AA00002F010FA0623E3560433290099408023CC
:104AB0009B0122681A4311600622A256083229007F
:104AC00091400A0021680B431A600623E356F20066
:104AD000013A04339B0021685A500622A256530023
:104AE0009B18DB00226894466344D833954A1A60C9
:104AF0000623E3560C9A921BD200013A04339B0022
:104B000021685A500622A25653009B18DB002268E7
:104B100094466344D8338C4A1A60062161560523B3
:104B2000E3561F221A404B005B18DB0021688C46BD
:104B30006344D8331A600722A2562B009340A0206A
:104B4000C005824943509101A023DB059C46614486
:104B5000CB68DB01F7D4082020560123834061464F
:104B60007A4A8B508101A023DB059C466144CA68C8
:104B700080235B04110019401A42F3D10722A25688
:104B8000734B0C2A00D90BE172480340D202134345
:104B90000C229343043A13436F4A13406F4A134065
:104BA0006F4A1340012213436E4A1340022293437B
:104BB0008022D20313430622A2566B482568854201
:104BC00000D1F3E0082012183F2A00D9F0E067482E
:104BD0000340D2031343072020560622A256043274
:104BE0009500226894466544B2088001A027FF051D
:104BF000BC4660444746076045608260C360082049
:104C00002056534B0C2800D9D8E0524D2B40C002FF
:104C100003430C208343043803434F4803404F4869
:104C200003404F480340012003434E480340022005
:104C300083438020C00303430620205604304A4D9E
:104C40002768AF4200D0082141183F2900D9BBE0B6
:104C500046480340C9030B4320210B4310398B43C3
:104C60000820205649468919062565570835AD00A4
:104C70002768BC46AC440C9DAD08AA1A8001A0254B
:104C8000ED05A84640446546056041608260C3600A
:104C90002168062020560B6801228240934313436B
:104CA0000B600722A2569301A021C9058C466344DC
:104CB0001B69DB01F7D40822A2569301A021C90584
:104CC0008C4663441B69DB01F7D43200002148465F
:104CD000FFF7C8F92368062161564A005218D2002E
:104CE0009B18D833224A1A60FFF7F4FC002003B067
:104CF000F0BCBB46B246A946A046F0BD002B00D092
:104D000079E605204042F2E7002E04D00C9B9E423B
:104D100001D24D467AE6174B174AEB211748FDF7AB
:104D2000E5FB174B144AF1211448FDF7DFFB154B47
:104D3000114AF2211148FDF7D9FBC0464C0800008A
:104D40007F00FEFF2060000040600000440400007F
:104D500010801F00FF87FFFF3FF8FFFFFFFFBFFF2F
:104D6000FFFFDFFFFFFF7FFF00002050FF7FE0FF1E
:104D700003A00000749200105895001008920010D3
:104D800098920010AC920010A24BA34AF321A348C2
:104D9000FDF7ACFBA24BA04AF421A048FDF7A6FB0F
:104DA000A04BA14AC321A148FDF7A0FB08000AE7D8
:104DB0009F4BA04AB5219D48FDF798FB994B9A4A15
:104DC000C3219A48FDF792FB994B9A4AB52197481F
:104DD000FDF78CFB002D00D17CE7A946AB0700D086
:104DE000FDE0B30700D001E1226806216156136897
:104DF000012738008840834313600622A256052508
:104E000065576B1C984650008118C90023689C4662
:104E10006144CC310B6888490B40E9010B434146A2
:104E200009030B438018C00062461218CC3213608D
:104E30000622A25653009B18DB00D0331A002368C9
:104E40009C46624480235B011343802212061A6051
:104E50001A6006216156802252041300206802F075
:104E600031F80623E35604333900994080239B012F
:104E700022681A4311600622A25608323900914076
:104E80000A0021680B431A600623E356F200013A38
:104E900004339B0021685A500622A25653009B18E7
:104EA000DB00226894466344D833644A1A600623C0
:104EB000E35604339B00002221685A500622A25672
:104EC00053009B18DB00226894466344D8335C4A45
:104ED0001A60062161560523E3561F221A404B0033
:104EE0005B18DB0021688C466344D8331A600720C6
:104EF00020568740A022D205524BD7508301A022D2
:104F0000D20594466344DA6880235B04110019409B
:104F10001A42F3D10722A2564B4B0C2A6DD84B48AC
:104F20000340D20213430C229343043A1343484AEA
:104F30001340484A1340484A134001221343474A4A
:104F40001340022293438022D20313430622A25627
:104F500043482568854200D0082151183F2952D87E
:104F6000404A1340C9030B430722A256062161564B
:104F700004318900206884466144B6089201A0206B
:104F8000C005844662444846106051609660D36014
:104F90000622A25618320123190091400A00216806
:104FA0008A602068062565570168AB4099430B432A
:104FB000036023689B681A42FBD0216806202056B4
:104FC0000B680122824093430B60062161562068E2
:104FD000002300930133182201F0C2FF7AE68F21EB
:104FE000214B0D4A49000D48FDF780FA20211F4B47
:104FF000094AFF310948FDF779FA0A4B0A4AC321E9
:105000000A48FDF773FA0A4B0A4AB5210748FDF72B
:105010006DFAC046C4920010589500100892001016
:10502000DC920010F09200103C95001010930010DC
:105030007C930010249500107F00FEFF206000008C
:10504000406000004404000010801F00FF87FFFF45
:105050003FF8FFFFFFFFBFFFFFFFDFFFFFFF7FFF07
:1050600000002050FF7FE0FFAC92001098920010EB
:1050700010B51720FBF728FAD024240680231B0440
:105080006362002201211720FBF772F91820FBF759
:105090001BFA80235B046362A3611920FBF714FAF7
:1050A00080239B046362636110BD70B5D024240625
:1050B00080252D04A5611420FCF79AFB6561FA2078
:1050C000FCF796FB1820FBF7FFF980235B04A36233
:1050D00070BD000070B584B005000E0014000822F9
:1050E000002102A8FEF7BEFF012E18D0360780234C
:1050F000DB053343E2020D4C2240134304221343E9
:105100005BBA02930823009302AB00212800FFF74B
:1051100065FC002801D1039840BA04B070BD842119
:10512000034B044AFF310448FDF7E0F900F8FF0F94
:1051300090930010109500100892001010B588B0E0
:105140000B001100012B1DD000241B078022D2056B
:105150001A43C9020D4B19400A4304210A43029223
:1051600023000833009302AB04220021FFF736FC32
:10517000002805D1002C07D005239B0002AA9858CF
:1051800008B010BD1024E0E70123F6E700F8FF0F98
:1051900010B588B00B001100012B1DD000241B0797
:1051A0008022D2051A43C9020D4B19400A4302213D
:1051B0000A43029223000833009302AB0422002129
:1051C000FFF70CFC002805D1002C07D005239B001D
:1051D00002AA985808B010BD1024E0E70123F6E7B2
:1051E00000F8FF0F10B588B00B001100012B1DD087
:1051F00000241B078022D2051A43C9020D4B194017
:105200000A4301210A43029223000833009302ABB0
:1052100004220021FFF7E2FB002805D1002C07D073
:1052200005239B0002AA985808B010BD1024E0E79F
:105230000123F6E700F8FF0F10B584B00C07C0217A
:1052400009062143D202084C22400A4304210A43A2
:1052500052BA02925BBA039300230093082202A978
:10526000FFF7BCFB04B010BD00F8FF0F30B585B0F0
:105270000D07C02424062C43D2020E4D2A4022439F
:105280000424224302920393012907D000230093B0
:10529000082202A9FFF7A2FB05B030BD064904347D
:1052A000445008394250054A8350054B8268C25029
:1052B000ECE7C04600F8FF0F580800005408000053
:1052C0005C08000030B585B00D07C02424062C43CF
:1052D000D2020E4D2A40224302242243029203931B
:1052E000012907D000230093082202A9FFF776FBCB
:1052F00005B030BD06490634445008394250054ACD
:105300008350054B8268C250ECE7C04600F8FF0F9F
:1053100058080000540800005C08000030B585B053
:105320000D07C02424062C43D2020E4D2A402243EE
:105330000124224302920393012907D00023009302
:10534000082202A9FFF74AFB05B030BD0649073421
:10535000445008394250054A8350054B8268C25078
:10536000ECE7C04600F8FF0F5808000054080000A2
:105370005C080000F0B5D6464F464646C0B582B040
:105380000D0090461E000A9C012943D0012D4AD0F1
:105390000022F31C03218B4399465F1EFF21C900A5
:1053A0008F4242D207002837A74204D003D82A4BA5
:1053B000C118A14240D8002A45D000239A462B07A5
:1053C0008025ED051D434346DB029846234B9C4652
:1053D000434661460B401D43354351460431890025
:1053E00041180B1D4D604A440432009204220021F2
:1053F000FFF7F4FA051E29D1A74204D03200390084
:105400002000FEF735FE280002B0E0BCBA46B146E7
:10541000A846F0BD402BB9D9E821114B114AFF3104
:105420001148FDF763F81022B3E7F5210F4B0D4A41
:1054300049000D48FDF75AF8EC210D4B094AFF31A0
:105440000948FDF753F804239A46B8E701000948D4
:10545000FEF766FFD7E7C0462808000000F8FF0FF8
:10546000AC930010FC94001008920010EC93001014
:105470001494001078940010F0B5D646474680B5D5
:1054800083B005000F0090469A46012934D0534658
:10549000DE1C03239E43721EFF23DB009A4233D29D
:1054A000022F38D0280028300A9B984248D00A9B07
:1054B000984204D8304BEB180A9A934255D83907D2
:1054C000C0273F060F434346DA022C4B1A401743CE
:1054D00053461F436F6252460A99FEF7C9FD2900E1
:1054E0002431321D002300932800FFF777FA03B020
:1054F000C0BCBA46B046F0BD402BC8D9204B214AAB
:1055000021492248FCF7F2FF8121214B1D4A8900E5
:105510001E48FCF7EBFFFA24A4002000013C002801
:1055200006DD082200212800FFF708FE8306F4D5D7
:10553000002CB7DC1748FEF7C3FE06204042D6E732
:105540003F07C0231B063B434246D7020B4A174086
:105550003B4352461A436A6229002431321D00231C
:1055600000932800FFF73AFAC1E70B4B054A0B49B5
:105570000648FCF7BBFFC0462808000000F8FF0FF4
:10558000AC930010E8940010020200000892001092
:10559000EC930010789A0010949400101E02000002
:1055A000012805D0022801D0002070470148FCE7FF
:1055B0000148FAE70040101800301018F8B507004D
:1055C0000C0016001D000B884988C9430904090C0A
:1055D0008B4225D10B2B29D9817B227A91422BD169
:1055E000237ABB7362790F231340022B06D8627AA9
:1055F0007B7BD31ADBB2142B00D87A7320880C285B
:105600001ED062790F231340012B52D0022B39D0C8
:10561000002B1BD03F48FEF753FE0B204042F8BD45
:105620003D48FEF74DFE02204042F8E73B48FEF7BA
:1056300047FE03204042F2E73948FEF771FECFE70C
:105640003848FEF73DFE04204042E8E71B280DD90C
:10565000E379E3185A8911003A8A8A420CD110334F
:105660001C1B001B30602B600020D8E72E48FEF783
:1056700027FE05204042D2E72C48FEF751FE0620C7
:105680004042CCE710280ED9E379E3189A78D9780C
:10569000890004315B181C1B041BD00720433060B9
:1056A0002B600220BBE72248FEF70AFE072040429B
:1056B000B5E710281CD9E379E318DA7892000432B0
:1056C0009B181C1B041B1A7B882A1DD15A7B6C2A31
:1056D0001DD1DA7C002A11D11A7D102A0ED15A7DF3
:1056E000182A0BD1183C346018332B60012096E740
:1056F0001048FEF7E5FD0820404290E70E48FEF70F
:10570000DFFD0A2040428AE70920404287E709205E
:10571000404284E7A896001090950010A8950010CC
:10572000C4950010EC9500100C96001030960010F7
:10573000589600107896001098960010F8B5CE464E
:10574000474680B50700B023C35AB42286589A1939
:10575000016C8A4207D804003C34E418A6190023DF
:105760009946984606E001235B4283602DE0A046FF
:1057700002356419B44212D222786578AB1CE31862
:10578000B342F5D8302AF2D0DD2AF1D1A01CD93AA3
:10579000104902F0BDF90028EAD1A146E8E74346E6
:1057A000002B00D004234A46002A01D002221343D2
:1057B0004C22BA5AD20601D5012213438421785AC9
:1057C000FF2202407A528822BB54C0BCB946B04680
:1057D000F8BDC046A09A0010F8B58D1E03308608AB
:1057E0000A002B0006E0108854882404204301C3DB
:1057F0000432013E002EF6D18C1E0B881A021B0AC1
:1058000013430B8061680A0E0B0AFF273F023B40DF
:105810001A430B02FF26360433401A4309060A4393
:105820006260A068010E030A3B4019430302334043
:10583000194300060143A160E068030E9C46030A79
:105840003B4067463B4307023E4033430006034369
:10585000E360452A01D02800F8BD0829FBD12800C3
:10586000FFF76CFFF7E70000F8B5CE46474680B576
:1058700005008946002916D1002426001E4F23006A
:105880003A0001212800FFF749FD23003A000121D9
:105890002800FFF743FD4B46002B06D00323984614
:1058A000032700240FE00124E7E70123984600279F
:1058B000F7E7012001F0E6FD33000F4A012128003F
:1058C000FFF72CFD01343F2C0DDC0B4A0121280091
:1058D000FFF788FC0028ECDB43460340BB42E8D1DD
:1058E000FF28E6D003E049460448FEF719FDC0BC96
:1058F000B946B046F8BDC0461F000100B89600107A
:1059000010B501235940C9B2FFF7AEFF10BD00002A
:1059100010B5012906D1012B0BD0042B0CD1FFF7B8
:105920000DFC10BD9221084B084A49000848FCF7BD
:10593000DDFDFFF757FCF4E79421064B034A4900CD
:105940000348FCF7D3FDC046DC960010449B0010D2
:10595000F89600105097001010B5012907D1012BBF
:105960000CD0042B0ED1029BFFF780FC10BD9721B9
:10597000084B094A49000948FCF7B8FD029BFFF7AC
:10598000CDFCF3E79921064B034A49000348FCF795
:10599000ADFDC046DC960010349B0010F896001058
:1059A0005097001030B583B00500CC0BE40383683A
:1059B000A3420FD063401B0E0ED1AB686340FF22A1
:1059C0001204134210D1AB686340FF22120213424B
:1059D00013D1AC6003B030BD230E009301230B4AFA
:1059E0000121FFF7B9FFE8E7230C00930123084AE0
:1059F00001212800FFF7B0FFE5E7230A0093012308
:105A0000044A01212800FFF7A7FFE2E70C0001008C
:105A10000B0001000A00010070B505000C00160023
:105A2000FFF7C0FF6404640C80221202224333009B
:105A300001212800FFF76CFF0400C0214905280060
:105A4000FFF7B0FF200070BD70B504000800FFF73D
:105A5000A7FD80231B01C518012229002000FFF7A4
:105A6000DBFF012229002000FFF7D6FFC30701D585
:105A7000002070BD0248FEF723FC06204042F8E7F4
:105A80005C97001070B505000800FFF789FD040061
:105A90008123DB00C11801222800FFF7BDFF03238B
:105AA0000340012B09D180231B01E11801222800AA
:105AB000FFF7B2FFC30704D470BD0448FEF700FC33
:105AC000F1E70248FEF7FCFBF6E7C04678970010C6
:105AD000F0B583B005000C0016001F00FFF762FF51
